:10080E00C0F9A4B0999282F880900001010203030E
:0A081E00040405060607080809098E
:10082800011226011EFA010800011300080901023D
:06083800040810204080BE
:04083F007F967E0022
:0B084300EF1FAC0670011E4C70F62287
:1007D400D3EF9400EE940040147D6E7C00ED1D7008
:0D07E400011CED4C70F7EF1F70E61E80E366
:0107F10022E5
:10079600E51C75F00A8490080E93F515E51C75F0B6
:0F07A6000A84E5F093547FF516E51D93F51722AD
:0B000600EF1FAC0670011E4C70F622CC
:10076E00E4FDD2B67F1CFE120006C2B67F507E009C
:10077E00120006D2B67F0E7E00120006A2B6E43339
:08078E00FD7F147E000200064D
:1007B500E4FDFB7D08C2B6EBC313FBD2B630B6032E
:0E07C5004303807F047E00120006DDE9AF03CF
:0107D3002203
:0207F200AD0751
:1007F400E4FB7B08C2B6ED1392B67F057E001200BF
:0908040006D2B6EDC313FDDBEBD7
:01080D0022C8
:10050E00E4F9FAF52312076E7FCC1207F27F44123C
:10051E0007F27F0F7E001207D412076E7FCC1207F0
:10052E00F27FBE1207F21207B5A9071207B5AA0786
:10053E00EA54F8FFBFF80D6302FFE9F404F9700105
:10054E000A752301E9540F90081893F51DE523B49D
:10055E0001057514BF80037514FFEA5407FFC454D8
:10056E00F0FFE954F0FEC4540F4FF51CE52360076D
:0B057E00E51CF404FF8002AF1C8F118D
:01058900224F
:1007440075210075220212050EE51CD39463400640
:10075400751C63751D09E522152270021521D3E568
:09076400229400E521940050DD0F
:01076D002269
:1006EE007580FFE4F5A0F52175221E8509A08514FD
:1006FE008012083F7580FF850AA085158012083F7D
:10070E007580FF850BA085168012083F7580FF85CA
:10071E000CA08517807FFA7E001208437580FF12A9
:10072E0003E1E522152270021521D3E5229400E59E
:05073E0021940050B6FB
:010743002293
:1003E100AC11EC12028B8F268E258D248C23AC1D33
:1003F100E412028B8F2A8E298D288C277BCD7ACC13
:1004010079CC783D12010E8F2A8E298D288C27AB4D
:1004110026AA25A924A82312001DC004C005C006D0
:10042100C007AC12EC12028BA804A905AA06AB07FF
:10043100D007D006D005D004120214603A4038AB80
:100441002AAA29A928A827AF26AE25AD24AC2312B4
:100451000019C004C005C006C007AC1EEC12028B17
:10046100A804A905AA06AB07D007D006D005D00479
:1004710012021460074005B2B7C29322D2B7D293D9
:010481002258
:02033900AD070E
:10033B007580FFE4F5A07B02FA8509A0E508B401FE
:10034B00057580898008E508B402037580C77F6452
:10035B007E001208437580FF850AA0C3ED6480946C
:10036B008050097580BFEDF404FD80037580FF7F1D
:10037B00647E001208437580FF850BA0ED75F00AB3
:10038B00120309FF3395E0FE740E2FF58274083EBD
:10039B00F583E493F5807F647E001208437580FF3C
:1003AB00850CA0ED75F00A120309AFF0EF3395E061
:1003BB00FE740E2FF58274083EF583E493F5807F6F
:1003CB00C87E001208437580FFEB1B70011AEB4AC5
:0503DB00600302034471
:0103E00022FA
:10060600D2AFD288D28A1207447F847E031207D4DF
:10061600120744120796D2B7D29320B1187FD07E24
:100626000712084330B1FD0508D200E508D394024D
:100636004003E4F508E5087011D2B7C2A8C2AA12B1
:1006460007441207961206EE80D0E508B40112D2CE
:10065600B7D293D2A8D2AA3000C0AF121203398003
:10066600B9E508B402B4D2B7D293D2A8D2AA300060
:08067600A9AF1E12033980A296
:0300030002067E74
:10067E00C0E0C0F0C083C082C0D075D000C000C042
:10068E0001C002C003C004C005C006C007C2A82036
:10069E00B221E508B4011CAF1212033930B2F815BD
:1006AE0012C3E51E6480F8E5126480985017851E0B
:1006BE0012801220B20FE508B4020AAF1E120339DF
:1006CE0030B2F8151ED007D006D005D004D003D016
:1006DE0002D001D000D0D0D082D083D0F0D0E03282
:0300130002058A59
:10058A00C0E0C0F0C083C082C0D075D000C000C037
:10059A0001C002C003C004C005C006C007C2AA2029
:1005AA00B31DE508B40118AF1212033930B3F805C8
:1005BA0012D3E512648094E34027751263802220E7
:1005CA00B31FE508B4021AAF1E12033930B3F80597
:1005DA001ED3E5126480F8E51E64809840038512F4
:1005EA001ED007D006D005D004D003D002D001D047
:0C05FA0000D0D0D082D083D0F0D0E0320E
:100016000202F4E86480F8E933E83360110460F022
:10002600ED33EC337009E8FCE9FDEAFEEBFF220450
:1000360060DED3EB9FEA9EE99DE8C2E78CF0C2F74B
:1000460095F0400CE8CCF8E9CDF9EACEFAEBCFFB17
:100056001202BF85D0F05804700320D5B3E80470AF
:10006600075002B2D50202FE92D5EC0460F7E4CC4A
:10007600C0E0C398F8603B94186008400DD0E0FBE0
:100086000202D6E4FBFAC9FC8028E830E406E4C99B
:10009600FBE4CAFCE830E305E4C9CACBFCE8540734
:1000A6006010F8C3E913F9EA13FAEB13FBEC13FC3F
:1000B600D8F130F52FC3E49CFCEF9BFFEE9AFEEDE2
:1000C60099FDD0E0FBEF4E4D4C701222DB0302028D
:1000D600FBEC2CFCEF33FFEE33FEED33FDED30E7AA
:1000E600EB0202D6EF2BFFEE3AFEED39FDD0E0FB38
:1000F60050130BBB00030202FEED13FDEE13FEEFE1
:0801060013FFEC13FC0202D60A
:10010E00EC4D6011E8497017ED33EC3304600DE4EB
:10011E00FCFFFEFD22E933E8330470F80202F4120C
:10012E0002BF58046009E4CC24815006285009020D
:10013E0002FE2840030202FBC0E0EB4A7044B98085
:10014E0006D0E0FB0202EAEF4E701CBD8008EBFF0A
:10015E00EAFEE9FD80EBE98DF0A4FEE5F00201F781
:10016E00E9CDF9EAFEEBFFEF89F0A4FCE5F0CE89CC
:10017E00F0A42EFFE435F0CD89F0A42DFEE435F089
:10018E008067EF4E7005BD80D780C3EF8BF0A4ACB7
:10019E00F0EE8BF0A42CFCE435F0F8EF8AF0A42CF2
:1001AE00E5F038FCE433CB8DF0A42CFCE5F03BF805
:1001BE00EE8AF0A42CFCE5F038F8E433CF89F0A4F5
:1001CE002CFCE5F038CF3400CE89F0A42FFFE5F0FB
:1001DE003EFEE433C98DF0A42EFEE5F039CD8AF053
:1001EE00A42FFFE5F03EFEE43DFD33D0E0FB5007CB
:1001FE000BBB000F0202FEEC2CFCEF33FFEE33FEC6
:06020E00ED33FD0202D6F3
:1002140074F8CC6480CCC86480C8F582046043C39D
:10022400EB9FF5F0EA9E42F0E99D42F0E89C45F030
:1002340060305018E5825FFFE582F42B5582FB5055
:10024400210ABA001D09B90019088016E5825BFB72
:10025400E582F42F5582FF50090EBE00050DBD0046
:10026400010CC3EB9FF5F0EA9E42F0E99D42F0E8F1
:0D0274009C45F06007CC4820E701B3EC2268
:1002810075F020800E75F010800575F0087D007EF8
:10029100007F003392D530D50312032BEC3340108D
:1002A100EF33FFEE33FEED33FDEC33FCD5F0ED2201
:0E02B100E5F0247EA2D513CC92E7CDCEFF223D
:1002BF00E9D2E7C933E833F892D5EDD2E7CD33EC85
:0702CF0033FC5002B2D522FE
:1002D600EC30E7100FBF000C0EBE00080DBD000489
:1002E6000BEB6014A2D5EB13FCED92E7FD2274FF35
:1002F600FCFDFEFF22E480F8A2D574FF13FC7D808E
:03030600E480EFA1
:0300000002048275
:0C048200787FE4F6D8FD75812A0204C9D9
:10030900C2D530F707B2D563F0FF05F030E70CB27C
:10031900D5F4048463F0FF05F080018430D502F43C
:020329000422AC
:0E032B00C3E49FFFE49EFEE49DFDE49CFC22E3
:10048E00020606E493A3F8E493A34003F68001F278
:10049E0008DFF48029E493A3F85407240CC8C3336F
:1004AE00C4540F4420C8834004F456800146F6DF3E
:1004BE00E4800B0102040810204080900828E47E9E
:1004CE00019360BCA3FF543F30E509541FFEE49333
:1004DE00A360010ECF54C025E060A840B8E493A3FA
:1004EE00FAE493A3F8E493A3C8C582C8CAC583CA25
:1004FE00F0A3C8C582C8CAC583CADFE9DEE780BEDD
:01083E0000B9
:00000001FF
